{
  "transactions": [
    {
      "hash": null,
      "transactionType": "CREATE",
      "contractName": "EligibilityModule",
      "contractAddress": "0x66ff0ef18bb3c0cacb8be2b33fbb6553ff26b6f3",
      "function": null,
      "arguments": [
        "0x1310cEdD03Cc8F6aE50F2Fb93848070FACB042b8"
      ],
      "transaction": {
        "from": "0x1310cedd03cc8f6ae50f2fb93848070facb042b8",
        "gas": "0x53c16",
        "value": "0x0",
        "input": "0x60803461007357601f6103e938819003918201601f19168301916001600160401b038311848410176100775780849260209460405283398101031261007357516001600160a01b03811690819003610073575f80546001600160a01b03191691909117905560405161035d908161008c8239f35b5f80fd5b634e487b7160e01b5f52604160045260245ffdfe608060408181526004361015610013575f80fd5b5f91823560e01c908163370d8fba1461024b5750806358675ae81461017757806375829def146100f9578063bd683872146100805763f851a44014610056575f80fd5b3461007c578160031936011261007c57905490516001600160a01b039091168152602090f35b5080fd5b5090346100f657816003193601126100f65760209061009d61029a565b506024358152600182528281206100b26102f3565b90549060ff80831615159283835260081c16151593849101525f146100ef576001915b156100ea575060015b82519182526020820152f35b6100de565b80916100d5565b80fd5b503461007c57602036600319011261007c5761011361029a565b8254906001600160a01b039061012c33838516146102b4565b1691821561014557506001600160a01b03191617815580f35b5162461bcd60e51b815260206004820152600c60248201526b5a65726f206164647265737360a01b6044820152606490fd5b503461007c57606036600319011261007c57600435906024359081151591828103610247576044359182151590818403610243577f31965539da4d3faf051b3068a0cd8e46c009cddfaba1b4488a46d05268da6c549461023d926101e560018060a01b038a541633146102b4565b6101ed6102f3565b918252602082019081528789526001602052828920915115159060ff61ff0084549251151560081b1692169061ffff19161717905551928392839092916020906040830194151583521515910152565b0390a280f35b8680fd5b8480fd5b919050346102965760203660031901126102965761029290829360043581526001602052205460ff808260081c169116839092916020906040830194151583521515910152565b0390f35b8280fd5b600435906001600160a01b03821682036102b057565b5f80fd5b156102bb57565b60405162461bcd60e51b815260206004820152601060248201526f2737ba1036b7b23ab6329030b236b4b760811b6044820152606490fd5b604051906040820182811067ffffffffffffffff82111761031357604052565b634e487b7160e01b5f52604160045260245ffdfea264697066735822122048570fecb2ab7603c618cdf06232c5616c11622803238ab2d76bdc0bd5ec3a7d64736f6c634300081400330000000000000000000000001310cedd03cc8f6ae50f2fb93848070facb042b8",
        "nonce": "0xab",
        "chainId": "0xaa36a7"
      },
      "additionalContracts": [],
      "isFixedGasLimit": false
    },
    {
      "hash": null,
      "transactionType": "CREATE",
      "contractName": "ToggleModule",
      "contractAddress": "0x4547b2def85b40795f96f7420487bc3140bdc872",
      "function": null,
      "arguments": [
        "0x1310cEdD03Cc8F6aE50F2Fb93848070FACB042b8"
      ],
      "transaction": {
        "from": "0x1310cedd03cc8f6ae50f2fb93848070facb042b8",
        "gas": "0x43812",
        "value": "0x0",
        "input": "0x60803461007357601f6102fc38819003918201601f19168301916001600160401b038311848410176100775780849260209460405283398101031261007357516001600160a01b03811690819003610073575f80546001600160a01b031916919091179055604051610270908161008c8239f35b5f80fd5b634e487b7160e01b5f52604160045260245ffdfe60406080815260049081361015610014575f80fd5b5f91823560e01c90816375829def1461017257816396208f7a14610130578163b8a27d0b14610103578163c43dc17714610081575063f851a44014610057575f80fd5b3461007d578160031936011261007d57905490516001600160a01b039091168152602090f35b5080fd5b9050346100ff57816003193601126100ff573590602435908115158092036100fb577f7a5b9053a8082029af84e35eaf597e3d1c1f826b93a622dbefe354ad36f31152916020916100dc60018060a01b0387541633146101fb565b8486526001835280862060ff1981541660ff841617905551908152a280f35b8380fd5b8280fd5b9050346100ff5760203660031901126100ff578160209360ff923581526001855220541690519015158152f35b9050346100ff5760203660031901126100ff57916020923581526001835260ff82822054165f14610169575060ff6001915b5191168152f35b60ff9091610162565b919050346100ff5760203660031901126100ff576001600160a01b038235818116939192908490036101f7576101ad855493841633146101fb565b83156101c55750506001600160a01b03191617815580f35b906020606492519162461bcd60e51b8352820152600c60248201526b5a65726f206164647265737360a01b6044820152fd5b8480fd5b1561020257565b60405162461bcd60e51b815260206004820152601060248201526f2737ba103a37b3b3b6329030b236b4b760811b6044820152606490fdfea2646970667358221220ac36f6451f477b4e0f9d60294c2b49aa10917236efc2dd601ed10ddba104d6d164736f6c634300081400330000000000000000000000001310cedd03cc8f6ae50f2fb93848070facb042b8",
        "nonce": "0xac",
        "chainId": "0xaa36a7"
      },
      "additionalContracts": [],
      "isFixedGasLimit": false
    },
    {
      "hash": null,
      "transactionType": "CALL",
      "contractName": null,
      "contractAddress": "0x3bc1a0ad72417f2d411118085256fc53cbddd137",
      "function": "mintTopHat(address,string,string)",
      "arguments": [
        "0x1310cEdD03Cc8F6aE50F2Fb93848070FACB042b8",
        "ipfs://bafkreihkqeopolm7yzsr3iz6xec5vwjblc54tj5jijvdnfa5qzwjhcsnqa",
        "https://example.com/hats/top-hat.png"
      ],
      "transaction": {
        "from": "0x1310cedd03cc8f6ae50f2fb93848070facb042b8",
        "to": "0x3bc1a0ad72417f2d411118085256fc53cbddd137",
        "gas": "0x5d21c",
        "value": "0x0",
        "input": "0x1a64dfad0000000000000000000000001310cedd03cc8f6ae50f2fb93848070facb042b8000000000000000000000000000000000000000000000000000000000000006000000000000000000000000000000000000000000000000000000000000000e00000000000000000000000000000000000000000000000000000000000000042697066733a2f2f6261666b726569686b71656f706f6c6d37797a737233697a367865633576776a626c633534746a356a696a76646e666135717a776a6863736e7161000000000000000000000000000000000000000000000000000000000000000000000000000000000000000000000000000000000000000000000000002468747470733a2f2f6578616d706c652e636f6d2f686174732f746f702d6861742e706e6700000000000000000000000000000000000000000000000000000000",
        "nonce": "0xad",
        "chainId": "0xaa36a7"
      },
      "additionalContracts": [],
      "isFixedGasLimit": false
    },
    {
      "hash": null,
      "transactionType": "CALL",
      "contractName": null,
      "contractAddress": "0x3bc1a0ad72417f2d411118085256fc53cbddd137",
      "function": "createHat(uint256,string,uint32,address,address,bool,string)",
      "arguments": [
        "20300839840364431765384262360525781897248769750173051078271018517659648",
        "ipfs://bafkreihkqeopolm7yzsr3iz6xec5vwjblc54tj5jijvdnfa5qzwjhcsnqa",
        "2",
        "0x66Ff0EF18bB3c0cAcB8be2B33fbb6553fF26B6F3",
        "0x4547B2DeF85B40795F96F7420487bc3140Bdc872",
        "true",
        "https://example.com/hats/arbiter-hat.png"
      ],
      "transaction": {
        "from": "0x1310cedd03cc8f6ae50f2fb93848070facb042b8",
        "to": "0x3bc1a0ad72417f2d411118085256fc53cbddd137",
        "gas": "0x542e9",
        "value": "0x0",
        "input": "0xb052925e000002f10000000000000000000000000000000000000000000000000000000000000000000000000000000000000000000000000000000000000000000000e0000000000000000000000000000000000000000000000000000000000000000200000000000000000000000066ff0ef18bb3c0cacb8be2b33fbb6553ff26b6f30000000000000000000000004547b2def85b40795f96f7420487bc3140bdc872000000000000000000000000000000000000000000000000000000000000000100000000000000000000000000000000000000000000000000000000000001600000000000000000000000000000000000000000000000000000000000000042697066733a2f2f6261666b726569686b71656f706f6c6d37797a737233697a367865633576776a626c633534746a356a696a76646e666135717a776a6863736e7161000000000000000000000000000000000000000000000000000000000000000000000000000000000000000000000000000000000000000000000000002868747470733a2f2f6578616d706c652e636f6d2f686174732f617262697465722d6861742e706e67000000000000000000000000000000000000000000000000",
        "nonce": "0xae",
        "chainId": "0xaa36a7"
      },
      "additionalContracts": [],
      "isFixedGasLimit": false
    },
    {
      "hash": null,
      "transactionType": "CALL",
      "contractName": null,
      "contractAddress": "0x3bc1a0ad72417f2d411118085256fc53cbddd137",
      "function": "createHat(uint256,string,uint32,address,address,bool,string)",
      "arguments": [
        "20300839840364431765384262360525781897248769750173051078271018517659648",
        "ipfs://bafkreihkqeopolm7yzsr3iz6xec5vwjblc54tj5jijvdnfa5qzwjhcsnqa",
        "1",
        "0x66Ff0EF18bB3c0cAcB8be2B33fbb6553fF26B6F3",
        "0x4547B2DeF85B40795F96F7420487bc3140Bdc872",
        "true",
        "https://example.com/hats/dao-hat.png"
      ],
      "transaction": {
        "from": "0x1310cedd03cc8f6ae50f2fb93848070facb042b8",
        "to": "0x3bc1a0ad72417f2d411118085256fc53cbddd137",
        "gas": "0x542a7",
        "value": "0x0",
        "input": "0xb052925e000002f10000000000000000000000000000000000000000000000000000000000000000000000000000000000000000000000000000000000000000000000e0000000000000000000000000000000000000000000000000000000000000000100000000000000000000000066ff0ef18bb3c0cacb8be2b33fbb6553ff26b6f30000000000000000000000004547b2def85b40795f96f7420487bc3140bdc872000000000000000000000000000000000000000000000000000000000000000100000000000000000000000000000000000000000000000000000000000001600000000000000000000000000000000000000000000000000000000000000042697066733a2f2f6261666b726569686b71656f706f6c6d37797a737233697a367865633576776a626c633534746a356a696a76646e666135717a776a6863736e7161000000000000000000000000000000000000000000000000000000000000000000000000000000000000000000000000000000000000000000000000002468747470733a2f2f6578616d706c652e636f6d2f686174732f64616f2d6861742e706e6700000000000000000000000000000000000000000000000000000000",
        "nonce": "0xaf",
        "chainId": "0xaa36a7"
      },
      "additionalContracts": [],
      "isFixedGasLimit": false
    },
    {
      "hash": null,
      "transactionType": "CALL",
      "contractName": null,
      "contractAddress": "0x3bc1a0ad72417f2d411118085256fc53cbddd137",
      "function": "createHat(uint256,string,uint32,address,address,bool,string)",
      "arguments": [
        "20300839840364431765384262360525781897248769750173051078271018517659648",
        "ipfs://bafkreihkqeopolm7yzsr3iz6xec5vwjblc54tj5jijvdnfa5qzwjhcsnqa",
        "1",
        "0x66Ff0EF18bB3c0cAcB8be2B33fbb6553fF26B6F3",
        "0x4547B2DeF85B40795F96F7420487bc3140Bdc872",
        "true",
        "https://example.com/hats/system-hat.png"
      ],
      "transaction": {
        "from": "0x1310cedd03cc8f6ae50f2fb93848070facb042b8",
        "to": "0x3bc1a0ad72417f2d411118085256fc53cbddd137",
        "gas": "0x542d8",
        "value": "0x0",
        "input": "0xb052925e000002f10000000000000000000000000000000000000000000000000000000000000000000000000000000000000000000000000000000000000000000000e0000000000000000000000000000000000000000000000000000000000000000100000000000000000000000066ff0ef18bb3c0cacb8be2b33fbb6553ff26b6f30000000000000000000000004547b2def85b40795f96f7420487bc3140bdc872000000000000000000000000000000000000000000000000000000000000000100000000000000000000000000000000000000000000000000000000000001600000000000000000000000000000000000000000000000000000000000000042697066733a2f2f6261666b726569686b71656f706f6c6d37797a737233697a367865633576776a626c633534746a356a696a76646e666135717a776a6863736e7161000000000000000000000000000000000000000000000000000000000000000000000000000000000000000000000000000000000000000000000000002768747470733a2f2f6578616d706c652e636f6d2f686174732f73797374656d2d6861742e706e6700000000000000000000000000000000000000000000000000",
        "nonce": "0xb0",
        "chainId": "0xaa36a7"
      },
      "additionalContracts": [],
      "isFixedGasLimit": false
    },
    {
      "hash": null,
      "transactionType": "CALL",
      "contractName": null,
      "contractAddress": "0x3bc1a0ad72417f2d411118085256fc53cbddd137",
      "function": "createHat(uint256,string,uint32,address,address,bool,string)",
      "arguments": [
        "20300839840364431765384262360525781897248769750173051078271018517659648",
        "ipfs://bafkreihkqeopolm7yzsr3iz6xec5vwjblc54tj5jijvdnfa5qzwjhcsnqa",
        "1",
        "0x66Ff0EF18bB3c0cAcB8be2B33fbb6553fF26B6F3",
        "0x4547B2DeF85B40795F96F7420487bc3140Bdc872",
        "true",
        "https://example.com/hats/pauser-hat.png"
      ],
      "transaction": {
        "from": "0x1310cedd03cc8f6ae50f2fb93848070facb042b8",
        "to": "0x3bc1a0ad72417f2d411118085256fc53cbddd137",
        "gas": "0x542d8",
        "value": "0x0",
        "input": "0xb052925e000002f10000000000000000000000000000000000000000000000000000000000000000000000000000000000000000000000000000000000000000000000e0000000000000000000000000000000000000000000000000000000000000000100000000000000000000000066ff0ef18bb3c0cacb8be2b33fbb6553ff26b6f30000000000000000000000004547b2def85b40795f96f7420487bc3140bdc872000000000000000000000000000000000000000000000000000000000000000100000000000000000000000000000000000000000000000000000000000001600000000000000000000000000000000000000000000000000000000000000042697066733a2f2f6261666b726569686b71656f706f6c6d37797a737233697a367865633576776a626c633534746a356a696a76646e666135717a776a6863736e7161000000000000000000000000000000000000000000000000000000000000000000000000000000000000000000000000000000000000000000000000002768747470733a2f2f6578616d706c652e636f6d2f686174732f7061757365722d6861742e706e6700000000000000000000000000000000000000000000000000",
        "nonce": "0xb1",
        "chainId": "0xaa36a7"
      },
      "additionalContracts": [],
      "isFixedGasLimit": false
    },
    {
      "hash": null,
      "transactionType": "CREATE",
      "contractName": "HatsSecurityContext",
      "contractAddress": "0x4340d3c52a3f633d10cbcc669528904d93180f36",
      "function": null,
      "arguments": [
        "0x3bc1A0Ad72417f2d411118085256fC53CBdDd137",
        "20300839840364431765384262360525781897248769750173051078271018517659648"
      ],
      "transaction": {
        "from": "0x1310cedd03cc8f6ae50f2fb93848070facb042b8",
        "gas": "0x54f2c",
        "value": "0x0",
        "input": "0x60803461010e57601f61042238819003918201601f19168301916001600160401b0383118484101761011257808492604094855283398101031261010e5780516001600160a01b038116919082900361010e57602001519080156100c9575f80546001600160a01b0319169190911781557fa49807205ce4d355092ef5a8a18f56e8913cf4a201fbe287825b095693c21775905260016020527f50efbde2d46c37e9785f1791697f77e94bb7b701e19f1930a668820722d37694556040516102fb90816101278239f35b60405162461bcd60e51b815260206004820152601b60248201527f4861747320616464726573732063616e6e6f74206265207a65726f00000000006044820152606490fd5b5f80fd5b634e487b7160e01b5f52604160045260245ffdfe60406080815260049081361015610014575f80fd5b5f91823560e01c90816391d14854146101ad578163b23e0dbe14610185578163dfbe6d4e14610076575063f99f02381461004c575f80fd5b34610072578160031936011261007257905490516001600160a01b039091168152602090f35b5080fd5b90503461018157816003193601126101815782547fa49807205ce4d355092ef5a8a18f56e8913cf4a201fbe287825b095693c217758452600160209081528385205484516321a9204d60e11b81523381860190815280840192909252919392849183916001600160a01b0316908290819060400103915afa90811561017757859161014a575b501561011357358352600190528120602435905580f35b915162461bcd60e51b815291820152601360248201527221b0b63632b91034b9903737ba1030b236b4b760691b6044820152606490fd5b61016a9150833d8511610170575b61016281836101ed565b810190610223565b5f6100fc565b503d610158565b84513d87823e3d90fd5b8280fd5b9050346101815760203660031901126101815760209282913581526001845220549051908152f35b905034610181578160031936011261018157602435926001600160a01b03841684036101ea57506020926101e1913561023f565b90519015158152f35b80fd5b90601f8019910116810190811067ffffffffffffffff82111761020f57604052565b634e487b7160e01b5f52604160045260245ffd5b9081602091031261023b5751801515810361023b5790565b5f80fd5b905f918252600160205260408220549081156102c05782546040516321a9204d60e11b81526001600160a01b039283166004820152602481019390935260209183916044918391165afa9182156102b45791610299575090565b6102b1915060203d81116101705761016281836101ed565b90565b604051903d90823e3d90fd5b50509056fea264697066735822122059ebaf1102f8f37ac455116c542c6eae2dde0fa8dcc122a2db219b61ff0dca3b64736f6c634300081400330000000000000000000000003bc1a0ad72417f2d411118085256fc53cbddd137000002f100000000000000000000000000000000000000000000000000000000",
        "nonce": "0xb2",
        "chainId": "0xaa36a7"
      },
      "additionalContracts": [],
      "isFixedGasLimit": false
    },
    {
      "hash": null,
      "transactionType": "CALL",
      "contractName": "EligibilityModule",
      "contractAddress": "0x66ff0ef18bb3c0cacb8be2b33fbb6553ff26b6f3",
      "function": "setHatRules(uint256,bool,bool)",
      "arguments": [
        "20300840251740571095685772899268077536586395995857017486665984354811904",
        "true",
        "true"
      ],
      "transaction": {
        "from": "0x1310cedd03cc8f6ae50f2fb93848070facb042b8",
        "to": "0x66ff0ef18bb3c0cacb8be2b33fbb6553ff26b6f3",
        "gas": "0x10324",
        "value": "0x0",
        "input": "0x58675ae8000002f10001000000000000000000000000000000000000000000000000000000000000000000000000000000000000000000000000000000000000000000010000000000000000000000000000000000000000000000000000000000000001",
        "nonce": "0xb3",
        "chainId": "0xaa36a7"
      },
      "additionalContracts": [],
      "isFixedGasLimit": false
    },
    {
      "hash": null,
      "transactionType": "CALL",
      "contractName": "EligibilityModule",
      "contractAddress": "0x66ff0ef18bb3c0cacb8be2b33fbb6553ff26b6f3",
      "function": "setHatRules(uint256,bool,bool)",
      "arguments": [
        "20300840663116710425987283438010373175924022241540983895060950191964160",
        "true",
        "true"
      ],
      "transaction": {
        "from": "0x1310cedd03cc8f6ae50f2fb93848070facb042b8",
        "to": "0x66ff0ef18bb3c0cacb8be2b33fbb6553ff26b6f3",
        "gas": "0x10324",
        "value": "0x0",
        "input": "0x58675ae8000002f10002000000000000000000000000000000000000000000000000000000000000000000000000000000000000000000000000000000000000000000010000000000000000000000000000000000000000000000000000000000000001",
        "nonce": "0xb4",
        "chainId": "0xaa36a7"
      },
      "additionalContracts": [],
      "isFixedGasLimit": false
    },
    {
      "hash": null,
      "transactionType": "CALL",
      "contractName": "EligibilityModule",
      "contractAddress": "0x66ff0ef18bb3c0cacb8be2b33fbb6553ff26b6f3",
      "function": "setHatRules(uint256,bool,bool)",
      "arguments": [
        "20300841074492849756288793976752668815261648487224950303455916029116416",
        "true",
        "true"
      ],
      "transaction": {
        "from": "0x1310cedd03cc8f6ae50f2fb93848070facb042b8",
        "to": "0x66ff0ef18bb3c0cacb8be2b33fbb6553ff26b6f3",
        "gas": "0x10324",
        "value": "0x0",
        "input": "0x58675ae8000002f10003000000000000000000000000000000000000000000000000000000000000000000000000000000000000000000000000000000000000000000010000000000000000000000000000000000000000000000000000000000000001",
        "nonce": "0xb5",
        "chainId": "0xaa36a7"
      },
      "additionalContracts": [],
      "isFixedGasLimit": false
    },
    {
      "hash": null,
      "transactionType": "CALL",
      "contractName": "EligibilityModule",
      "contractAddress": "0x66ff0ef18bb3c0cacb8be2b33fbb6553ff26b6f3",
      "function": "setHatRules(uint256,bool,bool)",
      "arguments": [
        "20300841485868989086590304515494964454599274732908916711850881866268672",
        "true",
        "true"
      ],
      "transaction": {
        "from": "0x1310cedd03cc8f6ae50f2fb93848070facb042b8",
        "to": "0x66ff0ef18bb3c0cacb8be2b33fbb6553ff26b6f3",
        "gas": "0x10324",
        "value": "0x0",
        "input": "0x58675ae8000002f10004000000000000000000000000000000000000000000000000000000000000000000000000000000000000000000000000000000000000000000010000000000000000000000000000000000000000000000000000000000000001",
        "nonce": "0xb6",
        "chainId": "0xaa36a7"
      },
      "additionalContracts": [],
      "isFixedGasLimit": false
    },
    {
      "hash": null,
      "transactionType": "CALL",
      "contractName": "ToggleModule",
      "contractAddress": "0x4547b2def85b40795f96f7420487bc3140bdc872",
      "function": "setHatStatus(uint256,bool)",
      "arguments": [
        "20300840251740571095685772899268077536586395995857017486665984354811904",
        "true"
      ],
      "transaction": {
        "from": "0x1310cedd03cc8f6ae50f2fb93848070facb042b8",
        "to": "0x4547b2def85b40795f96f7420487bc3140bdc872",
        "gas": "0xffbc",
        "value": "0x0",
        "input": "0xc43dc177000002f1000100000000000000000000000000000000000000000000000000000000000000000000000000000000000000000000000000000000000000000001",
        "nonce": "0xb7",
        "chainId": "0xaa36a7"
      },
      "additionalContracts": [],
      "isFixedGasLimit": false
    },
    {
      "hash": null,
      "transactionType": "CALL",
      "contractName": "ToggleModule",
      "contractAddress": "0x4547b2def85b40795f96f7420487bc3140bdc872",
      "function": "setHatStatus(uint256,bool)",
      "arguments": [
        "20300840663116710425987283438010373175924022241540983895060950191964160",
        "true"
      ],
      "transaction": {
        "from": "0x1310cedd03cc8f6ae50f2fb93848070facb042b8",
        "to": "0x4547b2def85b40795f96f7420487bc3140bdc872",
        "gas": "0xffbc",
        "value": "0x0",
        "input": "0xc43dc177000002f1000200000000000000000000000000000000000000000000000000000000000000000000000000000000000000000000000000000000000000000001",
        "nonce": "0xb8",
        "chainId": "0xaa36a7"
      },
      "additionalContracts": [],
      "isFixedGasLimit": false
    },
    {
      "hash": null,
      "transactionType": "CALL",
      "contractName": "ToggleModule",
      "contractAddress": "0x4547b2def85b40795f96f7420487bc3140bdc872",
      "function": "setHatStatus(uint256,bool)",
      "arguments": [
        "20300841074492849756288793976752668815261648487224950303455916029116416",
        "true"
      ],
      "transaction": {
        "from": "0x1310cedd03cc8f6ae50f2fb93848070facb042b8",
        "to": "0x4547b2def85b40795f96f7420487bc3140bdc872",
        "gas": "0xffbc",
        "value": "0x0",
        "input": "0xc43dc177000002f1000300000000000000000000000000000000000000000000000000000000000000000000000000000000000000000000000000000000000000000001",
        "nonce": "0xb9",
        "chainId": "0xaa36a7"
      },
      "additionalContracts": [],
      "isFixedGasLimit": false
    },
    {
      "hash": null,
      "transactionType": "CALL",
      "contractName": "ToggleModule",
      "contractAddress": "0x4547b2def85b40795f96f7420487bc3140bdc872",
      "function": "setHatStatus(uint256,bool)",
      "arguments": [
        "20300841485868989086590304515494964454599274732908916711850881866268672",
        "true"
      ],
      "transaction": {
        "from": "0x1310cedd03cc8f6ae50f2fb93848070facb042b8",
        "to": "0x4547b2def85b40795f96f7420487bc3140bdc872",
        "gas": "0xffbc",
        "value": "0x0",
        "input": "0xc43dc177000002f1000400000000000000000000000000000000000000000000000000000000000000000000000000000000000000000000000000000000000000000001",
        "nonce": "0xba",
        "chainId": "0xaa36a7"
      },
      "additionalContracts": [],
      "isFixedGasLimit": false
    },
    {
      "hash": null,
      "transactionType": "CALL",
      "contractName": null,
      "contractAddress": "0x3bc1a0ad72417f2d411118085256fc53cbddd137",
      "function": "mintHat(uint256,address)",
      "arguments": [
        "20300840251740571095685772899268077536586395995857017486665984354811904",
        "0x0000000000000000000000000000000000000012"
      ],
      "transaction": {
        "from": "0x1310cedd03cc8f6ae50f2fb93848070facb042b8",
        "to": "0x3bc1a0ad72417f2d411118085256fc53cbddd137",
        "gas": "0x1b3ae",
        "value": "0x0",
        "input": "0x641f776e000002f1000100000000000000000000000000000000000000000000000000000000000000000000000000000000000000000000000000000000000000000012",
        "nonce": "0xbb",
        "chainId": "0xaa36a7"
      },
      "additionalContracts": [],
      "isFixedGasLimit": false
    },
    {
      "hash": null,
      "transactionType": "CALL",
      "contractName": null,
      "contractAddress": "0x3bc1a0ad72417f2d411118085256fc53cbddd137",
      "function": "mintHat(uint256,address)",
      "arguments": [
        "20300840663116710425987283438010373175924022241540983895060950191964160",
        "0x0000000000000000000000000000000000000013"
      ],
      "transaction": {
        "from": "0x1310cedd03cc8f6ae50f2fb93848070facb042b8",
        "to": "0x3bc1a0ad72417f2d411118085256fc53cbddd137",
        "gas": "0x1b3ae",
        "value": "0x0",
        "input": "0x641f776e000002f1000200000000000000000000000000000000000000000000000000000000000000000000000000000000000000000000000000000000000000000013",
        "nonce": "0xbc",
        "chainId": "0xaa36a7"
      },
      "additionalContracts": [],
      "isFixedGasLimit": false
    },
    {
      "hash": null,
      "transactionType": "CALL",
      "contractName": "HatsSecurityContext",
      "contractAddress": "0x4340d3c52a3f633d10cbcc669528904d93180f36",
      "function": "setRoleHat(bytes32,uint256)",
      "arguments": [
        "0xbb08418a67729a078f87bbc8d02a770929bb68f5bfdf134ae2ead6ed38e2f4ae",
        "20300840251740571095685772899268077536586395995857017486665984354811904"
      ],
      "transaction": {
        "from": "0x1310cedd03cc8f6ae50f2fb93848070facb042b8",
        "to": "0x4340d3c52a3f633d10cbcc669528904d93180f36",
        "gas": "0x17387",
        "value": "0x0",
        "input": "0xdfbe6d4ebb08418a67729a078f87bbc8d02a770929bb68f5bfdf134ae2ead6ed38e2f4ae000002f100010000000000000000000000000000000000000000000000000000",
        "nonce": "0xbd",
        "chainId": "0xaa36a7"
      },
      "additionalContracts": [],
      "isFixedGasLimit": false
    },
    {
      "hash": null,
      "transactionType": "CALL",
      "contractName": "HatsSecurityContext",
      "contractAddress": "0x4340d3c52a3f633d10cbcc669528904d93180f36",
      "function": "setRoleHat(bytes32,uint256)",
      "arguments": [
        "0x3b5d4cc60d3ec3516ee8ae083bd60934f6eb2a6c54b1229985c41bfb092b2603",
        "20300840663116710425987283438010373175924022241540983895060950191964160"
      ],
      "transaction": {
        "from": "0x1310cedd03cc8f6ae50f2fb93848070facb042b8",
        "to": "0x4340d3c52a3f633d10cbcc669528904d93180f36",
        "gas": "0x17387",
        "value": "0x0",
        "input": "0xdfbe6d4e3b5d4cc60d3ec3516ee8ae083bd60934f6eb2a6c54b1229985c41bfb092b2603000002f100020000000000000000000000000000000000000000000000000000",
        "nonce": "0xbe",
        "chainId": "0xaa36a7"
      },
      "additionalContracts": [],
      "isFixedGasLimit": false
    },
    {
      "hash": null,
      "transactionType": "CALL",
      "contractName": "HatsSecurityContext",
      "contractAddress": "0x4340d3c52a3f633d10cbcc669528904d93180f36",
      "function": "setRoleHat(bytes32,uint256)",
      "arguments": [
        "0x5719df9ef2c4678b547f89e4f5ae410dbf400fc51cf3ded434c55f6adea2c43f",
        "20300841074492849756288793976752668815261648487224950303455916029116416"
      ],
      "transaction": {
        "from": "0x1310cedd03cc8f6ae50f2fb93848070facb042b8",
        "to": "0x4340d3c52a3f633d10cbcc669528904d93180f36",
        "gas": "0x17387",
        "value": "0x0",
        "input": "0xdfbe6d4e5719df9ef2c4678b547f89e4f5ae410dbf400fc51cf3ded434c55f6adea2c43f000002f100030000000000000000000000000000000000000000000000000000",
        "nonce": "0xbf",
        "chainId": "0xaa36a7"
      },
      "additionalContracts": [],
      "isFixedGasLimit": false
    },
    {
      "hash": null,
      "transactionType": "CALL",
      "contractName": "HatsSecurityContext",
      "contractAddress": "0x4340d3c52a3f633d10cbcc669528904d93180f36",
      "function": "setRoleHat(bytes32,uint256)",
      "arguments": [
        "0x65d7a28e3265b37a6474929f336521b332c1681b933f6cb9f3376673440d862a",
        "20300841485868989086590304515494964454599274732908916711850881866268672"
      ],
      "transaction": {
        "from": "0x1310cedd03cc8f6ae50f2fb93848070facb042b8",
        "to": "0x4340d3c52a3f633d10cbcc669528904d93180f36",
        "gas": "0x17387",
        "value": "0x0",
        "input": "0xdfbe6d4e65d7a28e3265b37a6474929f336521b332c1681b933f6cb9f3376673440d862a000002f100040000000000000000000000000000000000000000000000000000",
        "nonce": "0xc0",
        "chainId": "0xaa36a7"
      },
      "additionalContracts": [],
      "isFixedGasLimit": false
    },
    {
      "hash": null,
      "transactionType": "CREATE",
      "contractName": "SystemSettings",
      "contractAddress": "0x76c398f5e1cb1476e809d257e574739821e646d7",
      "function": null,
      "arguments": [
        "0x4340d3C52A3f633D10cBCc669528904d93180F36",
        "0x0000000000000000000000000000000000000011",
        "0"
      ],
      "transaction": {
        "from": "0x1310cedd03cc8f6ae50f2fb93848070facb042b8",
        "gas": "0xc60ce",
        "value": "0x0",
        "input": "0x608060409080825234620002f65760608162000bf68038038091620000258285620002fa565b833981010312620002f65780516001600160a01b03919082811690819003620002f6576020908183015192848416809403620002f657850151938115620002e557855163591f06df60e11b81527fa49807205ce4d355092ef5a8a18f56e8913cf4a201fbe287825b095693c2177560048201528381602481865afa90811562000257575f91620002b2575b508651631f33e04760e31b81528481600481875afa8015620002a857839286925f9262000261575b506044908a5194859384926321a9204d60e11b84523360048501526024840152165afa90811562000257575f9162000213575b5015620001cf57815f549182160362000191575b505081156200014e5750600180546001600160a01b031916919091179055600255516108c39081620003338239f35b60649084519062461bcd60e51b82526004820152601360248201527f496e76616c69645661756c7441646472657373000000000000000000000000006044820152fd5b6001600160a01b03191681175f90815533907f051a1819cad198aaab96867fdf5e127eafe91783a6b4005a8caddb1a943039589080a35f806200011f565b855162461bcd60e51b815260048101849052601360248201527f43616c6c6572206973206e6f742061646d696e000000000000000000000000006044820152606490fd5b8481813d83116200024f575b6200022b8183620002fa565b810103126200024b57519081151582036200024857505f6200010b565b80fd5b5080fd5b503d6200021f565b87513d5f823e3d90fd5b838193949295503d8311620002a0575b6200027d8183620002fa565b810103126200024b575190838216820362000248575082918591906044620000d8565b503d62000271565b88513d5f823e3d90fd5b908482813d8311620002dd575b620002cb8183620002fa565b81010312620002485750515f620000b0565b503d620002bf565b85516326a1e04760e01b8152600490fd5b5f80fd5b601f909101601f19168101906001600160401b038211908210176200031e57604052565b634e487b7160e01b5f52604160045260245ffdfe608060409080825260049182361015610016575f80fd5b5f91823560e01c90816324a9d8531461080057508063430bf08a146107d85780636412dd05146107b157806372c27b62146105e457806372fe9938146102b4576385535cc514610064575f80fd5b346102b057602092836003193601126102ac576001600160a01b03813581811692908390036102a8578454845163591f06df60e11b81527f3b5d4cc60d3ec3516ee8ae083bd60934f6eb2a6c54b1229985c41bfb092b26038382018190529184168882602481845afa918215610268578492918a918a93610272575b508851631f33e04760e31b815293849182905afa9182156102685785928a92610135928b92610239575b5089516321a9204d60e11b815233888201908152602081019290925294859384928391604090910190565b0392165afa90811561022f578791610202575b50156101e65750826001549283160361015f578480f35b82156101b4575093817fa4f45a63389e7031375b7e4422cccea56ab403ecedbd3ce1f0587acaa1999ae394956bffffffffffffffffffffffff60a01b161760015582519182523390820152a1805f8080808480f35b835162461bcd60e51b8152908101869052600c60248201526b496e76616c696456616c756560a01b6044820152606490fd5b84516303a2a05160e11b81529182015233602482015260449150fd5b6102229150883d8a11610228575b61021a818361081c565b810190610875565b5f610148565b503d610210565b86513d89823e3d90fd5b61025a919250843d8611610261575b610252818361081c565b810190610852565b905f61010a565b503d610248565b87513d8a823e3d90fd5b9250925081813d83116102a1575b61028a818361081c565b8101031261029d5751839189905f6100e0565b8780fd5b503d610280565b8480fd5b8280fd5b5080fd5b508290346102ac576020806003193601126105e0576001600160a01b038335818116949192908590036105dc5785549383851693815163591f06df60e11b918282527fa49807205ce4d355092ef5a8a18f56e8913cf4a201fbe287825b095693c21775808784015285836024818b5afa9283156104f3578b936105ad575b508451631f33e04760e31b8082529387828a818d5afa918d83156105a2578594938b96938b936103919392610583575b508a516321a9204d60e11b80825233998201998a5260208a019290925290979094859384928391604090910190565b0392165afa908115610579578d9161055c575b5015610540578a156105305785519485528785015285846024818d5afa9384156104f3578b946104fd575b508451928352858388818d5afa9283156104f3579186939161041795938d936104d4575b50865191825233898301908152602081019490945290948593849291839160400190565b0392165afa9081156104ca5788916104ad575b501561047657505050820361043d578280f35b6001600160a01b03191681178255337f051a1819cad198aaab96867fdf5e127eafe91783a6b4005a8caddb1a943039588380a381808280f35b5162461bcd60e51b815291820152601360248201527221b0b63632b91034b9903737ba1030b236b4b760691b604482015260649150fd5b6104c49150833d85116102285761021a818361081c565b8861042a565b82513d8a823e3d90fd5b6104ec919350853d871161026157610252818361081c565b918d6103f3565b85513d8d823e3d90fd5b9093508581813d8311610529575b610515818361081c565b810103126105255751928b6103cf565b8a80fd5b503d61050b565b85516326a1e04760e01b81528890fd5b876044918751916303a2a05160e11b8352820152336024820152fd5b6105739150883d8a116102285761021a818361081c565b8d6103a4565b87513d8f823e3d90fd5b61059b919250843d861161026157610252818361081c565b905f610362565b8851903d90823e3d90fd5b9092508581813d83116105d5575b6105c5818361081c565b810103126105255751918b610332565b503d6105bb565b8580fd5b8380fd5b508290346102ac57602091826003193601126105e0578354825163591f06df60e11b81527f3b5d4cc60d3ec3516ee8ae083bd60934f6eb2a6c54b1229985c41bfb092b26038184018190528335939290916001600160a01b039182168782602481845afa9182156107715785929189918b9361077b575b508851631f33e04760e31b815293849182905afa91821561077157916106af9189938b92610752575b5088516321a9204d60e11b815233888201908152602081019290925294859384928391604090910190565b0392165afa90811561074857879161072b575b501561070f57505080600254036106d7578380f35b7fe9935ecaa85c02d153b4c4195bdabdbd7d1b20d824a25c5feb05d273203a17b3928160025582519182523390820152a18180808380f35b83516303a2a05160e11b81529182015233602482015260449150fd5b6107429150863d88116102285761021a818361081c565b876106c2565b85513d89823e3d90fd5b61076a919250843d861161026157610252818361081c565b908b610684565b87513d8b823e3d90fd5b9350915082813d83116107aa575b610793818361081c565b810103126107a65787859251918b61065b565b8880fd5b503d610789565b50346102b057816003193601126102b057905490516001600160a01b039091168152602090f35b50346102b057816003193601126102b05760015490516001600160a01b039091168152602090f35b8390346102b057816003193601126102b0576020906002548152f35b90601f8019910116810190811067ffffffffffffffff82111761083e57604052565b634e487b7160e01b5f52604160045260245ffd5b9081602091031261087157516001600160a01b03811681036108715790565b5f80fd5b9081602091031261087157518015158103610871579056fea264697066735822122053c58ccff590fe86b0fd6115489d83237a632eb6bf80ae678e4d88340911ea0b64736f6c634300081400330000000000000000000000004340d3c52a3f633d10cbcc669528904d93180f3600000000000000000000000000000000000000000000000000000000000000110000000000000000000000000000000000000000000000000000000000000000",
        "nonce": "0xc1",
        "chainId": "0xaa36a7"
      },
      "additionalContracts": [],
      "isFixedGasLimit": false
    },
    {
      "hash": null,
      "transactionType": "CREATE",
      "contractName": "PaymentEscrow",
      "contractAddress": "0x8c0092e696c40650439cb3cf8e5e222e0aaf0147",
      "function": null,
      "arguments": [
        "0x4340d3C52A3f633D10cBCc669528904d93180F36",
        "0x76C398f5e1CB1476E809D257E574739821e646D7",
        "false"
      ],
      "transaction": {
        "from": "0x1310cedd03cc8f6ae50f2fb93848070facb042b8",
        "gas": "0x1cddad",
        "value": "0x0",
        "input": "0x608060409080825234620002be5760608162001ad28038038091620000258285620002c2565b833981010312620002be5780516001600160a01b03919082811690819003620002be576020928383015192818416809403620002be5785620000689101620002fa565b938215620002ad57855163591f06df60e11b81527fa49807205ce4d355092ef5a8a18f56e8913cf4a201fbe287825b095693c2177560048201528181602481875afa9081156200021b575f916200027a575b508651631f33e04760e31b81528281600481885afa80156200027057849284925f9262000225575b506044908a5194859384926321a9204d60e11b84523360048501526024840152165afa9081156200021b575f91620001db575b5015620001985750815f54918216036200015a575b505060018060a01b0319600154161760015560ff8019600354169115151617600355516117c99081620003098239f35b6001600160a01b03191681175f90815533907f051a1819cad198aaab96867fdf5e127eafe91783a6b4005a8caddb1a943039589080a35f806200012a565b60649086519062461bcd60e51b82526004820152601360248201527f43616c6c6572206973206e6f742061646d696e000000000000000000000000006044820152fd5b908282813d831162000213575b620001f48183620002c2565b810103126200021057506200020990620002fa565b5f62000115565b80fd5b503d620001e8565b87513d5f823e3d90fd5b838193949295503d831162000268575b620002418183620002c2565b8101031262000264575190848216820362000210575083918391906044620000e2565b5080fd5b503d62000235565b88513d5f823e3d90fd5b908282813d8311620002a5575b620002938183620002c2565b81010312620002105750515f620000ba565b503d62000287565b85516326a1e04760e01b8152600490fd5b5f80fd5b601f909101601f19168101906001600160401b03821190821017620002e657604052565b634e487b7160e01b5f52604160045260245ffd5b51908115158203620002be5756fe60806040818152600480361015610020575b505050361561001e575f80fd5b005b5f92833560e01c9081633c26740c14611076575080633f4ba83a14610efc5780635c975abb14610ed55780636412dd0514610ead57806372fe993814610b825780638456cb59146109cd5780638c6380d1146107245780639e7f2101146104c8578063bf89fc61146101c85763e66eefc80361001157346101c45760203660031901126101c4579161012092828051926100b9846111c6565b80845280602085015280828501528060608501528060808501528060a08501528060c08501528060e0850152806101008095015282358152600260205220835193610103856111c6565b81549485815260018060a01b039383856001819601541691602084019283528560028301541694808501958652600560038401549260608701938452840154936080870194855201549687968160a088019660ff8a1615158852818d60c08b019a60ff8d60081c1615158c5260ff60e082019d60101c1615158d52019b60181c168b5284519d8e52511660208d01525116908a015251606089015251608088015251151560a087015251151560c086015251151560e0850152511690820152f35b8280fd5b50346101c4576020806003193601126104c4578135916101f060ff60035460081c1615611254565b828552600282528385209060018060a01b03806002840154169081331415806104b4575b80610433575b6103f957600384015461022b578780f35b60447fbb08418a67729a078f87bbc8d02a770929bb68f5bfdf134ae2ead6ed38e2f4ae918693331461039d575b338160018801541614610346575b8954169388519485938492632474521560e21b84528301523360248301525afa90811561033c57916102ac9591859493889161030f575b506102b7575b50505050611312565b5f8080808080808780f35b6005019182549260ff8416156102ce575b506102a3565b60017fb2b6668db4a99498a43f8f9be5668048bcdf698c6c0994b3e41be911ca9729e89460ff19161790556003825191338352820152a2805f8080806102c8565b61032f9150843d8611610335575b61032781836111f7565b81019061123c565b5f61029d565b503d61031d565b85513d88823e3d90fd5b60058601805460ff81161561035d575b5050610266565b60019060ff1916179055877fb2b6668db4a99498a43f8f9be5668048bcdf698c6c0994b3e41be911ca9729e88a8051338152600288820152a25f80610356565b60058601805460ff8160081c16156103b7575b5050610258565b6101009061ff001916179055877fb2b6668db4a99498a43f8f9be5668048bcdf698c6c0994b3e41be911ca9729e88a8051338152600188820152a25f806103b0565b865162461bcd60e51b81526020818501818152600c918101919091526b155b985d5d1a1bdc9a5e995960a21b604082015281906060010390fd5b50604485828a5416895192838092632474521560e21b82527fbb08418a67729a078f87bbc8d02a770929bb68f5bfdf134ae2ead6ed38e2f4ae898301523360248301525afa9081156104aa57899161048d575b501561021a565b6104a49150863d88116103355761032781836111f7565b5f610486565b88513d8b823e3d90fd5b5080600185015416331415610214565b8380fd5b509190346107205780600319360112610720578235906024356104f360ff60035460081c1615611254565b8284526020916002835280852060058101549060ff8260101c166106dd57600381015491821515806106d0575b610528578780f35b60028201546001600160a01b039081163314158061064e575b610614576105548a8401948554906112f1565b86116105e0578561056457508780f35b9185918361057f9460018454940154169160181c1691611524565b61058a575b80808780f35b8054908382018092116105cd577f7a1dd09597e0454bccf83a57e47d6ce29d4f89f3dd01f54d4bcf1768b1728654959697505551908152a2805f80808080610584565b634e487b7160e01b875260118852602487fd5b845162461bcd60e51b8152808b01889052600e60248201526d105b5bdd5b9d115e18d95959195960921b6044820152606490fd5b845162461bcd60e51b81526020818c01818152600c918101919091526b155b985d5d1a1bdc9a5e995960a21b604082015281906060010390fd5b5080895416877fbb08418a67729a078f87bbc8d02a770929bb68f5bfdf134ae2ead6ed38e2f4ae60448d89519485938492632474521560e21b84528301523360248301525afa9081156106c6578a916106a9575b5015610541565b6106c09150883d8a116103355761032781836111f7565b5f6106a2565b86513d8c823e3d90fd5b5082898301541115610520565b825162461bcd60e51b8152808901869052601860248201527f5061796d656e7420616c72656164792072656c656173656400000000000000006044820152606490fd5b5080fd5b5060a03660031901126101c45761074360ff60035460081c1615611254565b6084356107518115156112b5565b6001600160a01b0380610762611289565b1615610998576024359283865260209060028252848688205414610964578261078961129f565b166108ac575060029061079d8434146112b5565b848752528385206064358281168091036108a8577fdc9b4d1be872943f8c9f8d2d6e8514c595ab627d643f3a0b87b294bc51526ce0936108a29160018401976bffffffffffffffffffffffff60a01b98828a8254161790556107fd611289565b86600287019116809a82541617905561081461129f565b6005860180546301000000600160b81b03601893841b166301000000600160b81b03198216811783556003808a01889055988c9055975461ff0060ff909116151560081b1662ff0100600160b81b0319909116909717969096179586905590516001600160a01b03928316815294901c94909416909316602083015260408201929092529081906060820190565b0390a380f35b8680fd5b6108b461129f565b86516323b872dd60e01b81523383820190815230602082015260408101879052909184918391908290036060019082908c9089165af190811561095a57889161093d575b5015610907575060029061079d565b60649186519162461bcd60e51b83528201526012602482015271151bdad95b94185e5b595b9d11985a5b195960721b6044820152fd5b6109549150833d85116103355761032781836111f7565b5f6108f8565b87513d8a823e3d90fd5b60649186519162461bcd60e51b8352820152601060248201526f111d5c1b1a58d85d1954185e5b595b9d60821b6044820152fd5b835162461bcd60e51b8152602081850152600f60248201526e24b73b30b634b22932b1b2b4bb32b960891b6044820152606490fd5b50346101c457826003193601126101c457600354916109f260ff8460081c1615611254565b8354815163591f06df60e11b81527f5719df9ef2c4678b547f89e4f5ae410dbf400fc51cf3ded434c55f6adea2c43f84820181905292916020916001600160a01b039182168382602481845afa918215610b425787929185918b93610b4c575b508651631f33e04760e31b815293849182905afa918215610b425791610aa69185938b92610b13575b5086516321a9204d60e11b8152338a8201908152602081019290925294859384928391604090910190565b0392165afa918215610b09578792610aec575b505015610ad15761ff00198416610100176003558480f35b516303a2a05160e11b81529182015233602482015260449150fd5b610b029250803d106103355761032781836111f7565b5f80610ab9565b83513d89823e3d90fd5b610b34919250843d8611610b3b575b610b2c81836111f7565b810190611219565b905f610a7b565b503d610b22565b85513d8b823e3d90fd5b9350915082813d8311610b7b575b610b6481836111f7565b81010312610b775783879251915f610a52565b8880fd5b503d610b5a565b5090346101c4576020806003193601126104c4576001600160a01b03833581811694919290859003610ea95785549383851693815163591f06df60e11b918282527fa49807205ce4d355092ef5a8a18f56e8913cf4a201fbe287825b095693c21775808784015285836024818b5afa928315610dc0578b93610e7a575b508451631f33e04760e31b8082529387828a818d5afa918d8315610e6f578594938b96938b93610c5e9392610e50575b508a516321a9204d60e11b80825233998201998a5260208a019290925290979094859384928391604090910190565b0392165afa908115610e46578d91610e29575b5015610e0d578a15610dfd5785519485528785015285846024818d5afa938415610dc0578b94610dca575b508451928352858388818d5afa928315610dc05791869391610ce495938d93610da1575b50865191825233898301908152602081019490945290948593849291839160400190565b0392165afa908115610d97578891610d7a575b5015610d43575050508203610d0a578280f35b6001600160a01b03191681178255337f051a1819cad198aaab96867fdf5e127eafe91783a6b4005a8caddb1a943039588380a35f808280f35b5162461bcd60e51b815291820152601360248201527221b0b63632b91034b9903737ba1030b236b4b760691b604482015260649150fd5b610d919150833d85116103355761032781836111f7565b5f610cf7565b82513d8a823e3d90fd5b610db9919350853d8711610b3b57610b2c81836111f7565b915f610cc0565b85513d8d823e3d90fd5b9093508581813d8311610df6575b610de281836111f7565b81010312610df25751925f610c9c565b8a80fd5b503d610dd8565b85516326a1e04760e01b81528890fd5b876044918751916303a2a05160e11b8352820152336024820152fd5b610e409150883d8a116103355761032781836111f7565b5f610c71565b87513d8f823e3d90fd5b610e68919250843d8611610b3b57610b2c81836111f7565b905f610c2f565b8851903d90823e3d90fd5b9092508581813d8311610ea2575b610e9281836111f7565b81010312610df25751915f610bff565b503d610e88565b8580fd5b505034610720578160031936011261072057905490516001600160a01b039091168152602090f35b50503461072057816003193601126107205760209060ff60035460081c1690519015158152f35b50346101c457826003193601126101c4576003549160ff8360081c1615611047578354815163591f06df60e11b81527f5719df9ef2c4678b547f89e4f5ae410dbf400fc51cf3ded434c55f6adea2c43f84820181905292916020916001600160a01b039182168382602481845afa918215610b425787929185918b93611015575b508651631f33e04760e31b815293849182905afa918215610b425791610fd09185938b92610b13575086516321a9204d60e11b8152338a8201908152602081019290925294859384928391604090910190565b0392165afa918215610b09578792610ff8575b505015610ad15750505061ff00191660035580f35b61100e9250803d106103355761032781836111f7565b5f80610fe3565b9350915082813d8311611040575b61102d81836111f7565b81010312610b775783879251915f610f7d565b503d611023565b906020606492519162461bcd60e51b83528201526009602482015268139bdd14185d5cd95960ba1b6044820152fd5b9050346104c457602092836003193601126111c257823593841515809503610ea957855463591f06df60e11b84527f5719df9ef2c4678b547f89e4f5ae410dbf400fc51cf3ded434c55f6adea2c43f858501819052936001600160a01b039182168382602481845afa918215610b425787929185918b93611190575b508651631f33e04760e31b815293849182905afa918215610b4257916111459185938b92610b13575086516321a9204d60e11b8152338a8201908152602081019290925294859384928391604090910190565b0392165afa918215610b09578792611173575b505015610ad15750505060ff80196003541691161760035580f35b6111899250803d106103355761032781836111f7565b5f80611158565b9350915082813d83116111bb575b6111a881836111f7565b81010312610b775783879251915f6110f2565b503d61119e565b8480fd5b610120810190811067ffffffffffffffff8211176111e357604052565b634e487b7160e01b5f52604160045260245ffd5b90601f8019910116810190811067ffffffffffffffff8211176111e357604052565b9081602091031261123857516001600160a01b03811681036112385790565b5f80fd5b90816020910312611238575180151581036112385790565b1561125b57565b60405162461bcd60e51b815260206004820152600660248201526514185d5cd95960d21b6044820152606490fd5b6044356001600160a01b03811681036112385790565b6004356001600160a01b03811681036112385790565b156112bc57565b60405162461bcd60e51b815260206004820152600d60248201526c125b9d985b1a59105b5bdd5b9d609a1b6044820152606490fd5b919082039182116112fe57565b634e487b7160e01b5f52601160045260245ffd5b805f52600260205260405f2060058101805460ff8116158015611463575b8015611456575b6114505761134e60038401546004850154906112f1565b925f93611359611699565b8061142d575b508461136a916112f1565b918280159182611423575b82156113f8575b505061138a575b5050505050565b5482546113a591859160181c6001600160a01b0316906114ff565b6113b0575b80611383565b7f1679e83f1a5c78898f99c2ad78c3681c0209a5d388b6cc90177b405b9269684a926040926201000062ff00001982541617905582519182526020820152a25f8080806113aa565b8354600285015461141c94506001600160a01b0360189390931c8316921690611524565b825f61137c565b8615159250611375565b81611439929650611471565b93808511611448575b5f61135f565b5f9450611442565b50505050565b5060ff8160101c16611337565b5060ff8160081c1615611330565b9091905f19838209838202918280831092039180830392146114f45761271090818310156114d157947fbc01a36e2eb1c432ca57a786c226809d495182a9930be0ded288ce703afb7e9194950990828211900360fc1b910360041c170290565b60649186604051926307639aaf60e41b8452600484015260248301526044820152fd5b505061271090049150565b9190811561151c5761151992611513611714565b90611524565b90565b505050600190565b9092915f9383611536575b5050505090565b9293919290919084906001600160a01b03908185168061162557505f9350839283928392165af13d15611620573d67ffffffffffffffff81116111e3576040519061158b601f8201601f1916602001836111f7565b81525f60203d92013e5b925b83156115e357604080516001600160a01b0393909316835260208301919091527ff14ef85bfbd4ab3db29093022b1fa9f520897dd2384673dc48e07327654da0bf91a25f80808061152f565b60405162461bcd60e51b815260206004820152601560248201527414185e5b595b9d151c985b9cd9995c91985a5b1959605a1b6044820152606490fd5b611595565b60405163a9059cbb60e01b81526001600160a01b03929092166004830152602482019390935291602091508290604490829086905af191821561168d579161166f575b5092611597565b611687915060203d81116103355761032781836111f7565b5f611668565b604051903d90823e3d90fd5b6001546001600160a01b0316806116af57505f90565b6020600491604051928380926324a9d85360e01b82525afa908115611709575f916116d8575090565b906020823d8211611701575b816116f1602093836111f7565b810103126116fe57505190565b80fd5b3d91506116e4565b6040513d5f823e3d90fd5b6001546001600160a01b039081168061172d5750505f90565b602060049160405192838092632185f84560e11b82525afa908115611709575f91611759575b50905090565b6020813d821161178b575b81611771602093836111f7565b81010312610720575191821682036116fe5750805f611753565b3d915061176456fea2646970667358221220b22b1c313724d4147b91f33f70f842c7115d288735f866769ea420d3c960bdb864736f6c634300081400330000000000000000000000004340d3c52a3f633d10cbcc669528904d93180f3600000000000000000000000076c398f5e1cb1476e809d257e574739821e646d70000000000000000000000000000000000000000000000000000000000000000",
        "nonce": "0xc2",
        "chainId": "0xaa36a7"
      },
      "additionalContracts": [],
      "isFixedGasLimit": false
    },
    {
      "hash": null,
      "transactionType": "CREATE",
      "contractName": "EscrowMulticall",
      "contractAddress": "0x5c5821789fe4670d975e234ad253a06984f28547",
      "function": null,
      "arguments": null,
      "transaction": {
        "from": "0x1310cedd03cc8f6ae50f2fb93848070facb042b8",
        "gas": "0x75d13",
        "value": "0x0",
        "input": "0x60808060405234610016576105be908161001b8239f35b5f80fdfe6080604052600436101561001a575b3615610018575f80fd5b005b5f3560e01c63d316ed330361000e5760203660031901126104db5767ffffffffffffffff600435116104db573660236004350112156104db5767ffffffffffffffff60043560040135116104db5736602460c060043560040135026004350101116104db575f5b60043560040135811061009057005b60c081026004350160c060231982360301126104db5760405160c0810181811067ffffffffffffffff8211176104c7576040526100cf6024830161051d565b81526100dd6044830161051d565b806020830152606483013560408301526100f96084840161051d565b606083015261010a60a4840161051d565b608083015260c483013560a08301526001600160a01b0381166102a257509060c4013534106102685760208101516040808301516060840151608085015160a086015193515f9687969095919491936001600160a01b0393841693908116929116610174866104df565b8552602080860191825260408087019384526060870194855260808701958652875160a0909801519051638c6380d160e01b92810192835296516001600160a01b03908116602489015292516044880152925182166064870152925181166084860152925160a48501529190931692916101fb8160c481015b03601f1981018352826104fb565b51925af1610207610549565b5015610232575b5f19811461021e57600101610081565b634e487b7160e01b5f52601160045260245ffd5b60405162461bcd60e51b815260206004820152600e60248201526d5061796d656e744661696c75726560901b6044820152606490fd5b60405162461bcd60e51b8152602060048201526012602482015271125b9cdd59999a58da595b9d105b5bdd5b9d60721b6044820152606490fd5b6040516323b872dd60e01b815233600482015230602482015260c484013560448201526020816064815f6001600160a01b0387165af1908115610462575f916104a8575b501561046d57815160405163095ea7b360e01b81526001600160a01b03918216600482015260c494909401356024850152602091849160449183915f91165af1908115610462575f928392610433575b5060208101516040808301516060840151608085015160a0860151935195946001600160a01b0391821693928216929116610370876104df565b865260208087019182526040808801938452606088019485526080880195865295519551638c6380d160e01b91810191825296516001600160a01b03908116602489015291516044880152915181166064870152915182166084860152915160a48501529091169183906103e78160c481016101ed565b51925af16103f3610549565b5061020e5760405162461bcd60e51b8152602060048201526013602482015272546f6b656e5061796d656e744661696c75726560681b6044820152606490fd5b6104549060203d60201161045b575b61044c81836104fb565b810190610531565b505f610336565b503d610442565b6040513d5f823e3d90fd5b60405162461bcd60e51b8152602060048201526013602482015272151bdad95b951c985b9cd9995c91985a5b1959606a1b6044820152606490fd5b6104c1915060203d60201161045b5761044c81836104fb565b5f6102e6565b634e487b7160e01b5f52604160045260245ffd5b5f80fd5b60a0810190811067ffffffffffffffff8211176104c757604052565b90601f8019910116810190811067ffffffffffffffff8211176104c757604052565b35906001600160a01b03821682036104db57565b908160209103126104db575180151581036104db5790565b3d15610583573d9067ffffffffffffffff82116104c75760405191610578601f8201601f1916602001846104fb565b82523d5f602084013e565b60609056fea264697066735822122092d81c3892c68ee98f14354ad62f760c507273491f6a531b06647f43a045a7a064736f6c63430008140033",
        "nonce": "0xc3",
        "chainId": "0xaa36a7"
      },
      "additionalContracts": [],
      "isFixedGasLimit": false
    }
  ],
  "receipts": [],
  "libraries": [],
  "pending": [],
  "returns": {},
  "timestamp": 1736808800,
  "chain": 11155111,
  "commit": "beaae4e"
}